{
  "contractName": "Mari",
  "abi": [
    {
      "anonymous": false,
      "inputs": [
        {
          "indexed": false,
          "internalType": "uint256",
          "name": "index",
          "type": "uint256"
        }
      ],
      "name": "NewContract",
      "type": "event"
    },
    {
      "anonymous": false,
      "inputs": [
        {
          "indexed": false,
          "internalType": "bytes32",
          "name": "proofElement",
          "type": "bytes32"
        }
      ],
      "name": "Root",
      "type": "event"
    },
    {
      "constant": false,
      "inputs": [
        {
          "internalType": "bytes32",
          "name": "lock",
          "type": "bytes32"
        },
        {
          "internalType": "uint256",
          "name": "expire",
          "type": "uint256"
        }
      ],
      "name": "newContract",
      "outputs": [],
      "payable": true,
      "stateMutability": "payable",
      "type": "function"
    },
    {
      "constant": true,
      "inputs": [
        {
          "internalType": "address",
          "name": "addr",
          "type": "address"
        },
        {
          "internalType": "uint256",
          "name": "index",
          "type": "uint256"
        }
      ],
      "name": "getContract",
      "outputs": [
        {
          "internalType": "uint256",
          "name": "",
          "type": "uint256"
        },
        {
          "internalType": "bytes32",
          "name": "",
          "type": "bytes32"
        },
        {
          "internalType": "uint256",
          "name": "",
          "type": "uint256"
        }
      ],
      "payable": false,
      "stateMutability": "view",
      "type": "function"
    },
    {
      "constant": true,
      "inputs": [
        {
          "internalType": "address",
          "name": "a",
          "type": "address"
        }
      ],
      "name": "getCount",
      "outputs": [
        {
          "internalType": "uint256",
          "name": "",
          "type": "uint256"
        }
      ],
      "payable": false,
      "stateMutability": "view",
      "type": "function"
    },
    {
      "constant": false,
      "inputs": [
        {
          "internalType": "bytes32[]",
          "name": "W",
          "type": "bytes32[]"
        },
        {
          "internalType": "bytes32",
          "name": "h",
          "type": "bytes32"
        },
        {
          "internalType": "uint256",
          "name": "j",
          "type": "uint256"
        },
        {
          "internalType": "uint8",
          "name": "layer",
          "type": "uint8"
        }
      ],
      "name": "verify",
      "outputs": [
        {
          "internalType": "bytes32",
          "name": "",
          "type": "bytes32"
        }
      ],
      "payable": false,
      "stateMutability": "nonpayable",
      "type": "function"
    },
    {
      "constant": false,
      "inputs": [
        {
          "internalType": "bytes32[]",
          "name": "W1",
          "type": "bytes32[]"
        },
        {
          "internalType": "bytes32[]",
          "name": "W2",
          "type": "bytes32[]"
        },
        {
          "internalType": "bytes32[]",
          "name": "W3",
          "type": "bytes32[]"
        },
        {
          "internalType": "string",
          "name": "x1",
          "type": "string"
        },
        {
          "internalType": "bytes6",
          "name": "v1",
          "type": "bytes6"
        },
        {
          "internalType": "bytes6",
          "name": "e1",
          "type": "bytes6"
        },
        {
          "internalType": "uint256",
          "name": "i1",
          "type": "uint256"
        },
        {
          "internalType": "uint256",
          "name": "i2",
          "type": "uint256"
        },
        {
          "internalType": "uint256",
          "name": "i3",
          "type": "uint256"
        }
      ],
      "name": "claim",
      "outputs": [],
      "payable": false,
      "stateMutability": "nonpayable",
      "type": "function"
    }
  ],
  "bytecode": "0x608060405234801561001057600080fd5b50610e9b806100206000396000f3fe60806040526004361061004a5760003560e01c80634f0cd27b1461004f578063586db74c146100b45780636f14d9f4146100ec578063a070234d146101e6578063aad55726146104d7575b600080fd5b34801561005b57600080fd5b5061009e6004803603602081101561007257600080fd5b81019080803573ffffffffffffffffffffffffffffffffffffffff169060200190929190505050610554565b6040518082815260200191505060405180910390f35b6100ea600480360360408110156100ca57600080fd5b81019080803590602001909291908035906020019092919050505061059f565b005b3480156100f857600080fd5b506101d06004803603608081101561010f57600080fd5b810190808035906020019064010000000081111561012c57600080fd5b82018360208201111561013e57600080fd5b8035906020019184602083028401116401000000008311171561016057600080fd5b919080806020026020016040519081016040528093929190818152602001838360200280828437600081840152601f19601f8201169050808301925050505050505091929192908035906020019092919080359060200190929190803560ff1690602001909291905050506106d6565b6040518082815260200191505060405180910390f35b3480156101f257600080fd5b506104d5600480360361012081101561020a57600080fd5b810190808035906020019064010000000081111561022757600080fd5b82018360208201111561023957600080fd5b8035906020019184602083028401116401000000008311171561025b57600080fd5b919080806020026020016040519081016040528093929190818152602001838360200280828437600081840152601f19601f820116905080830192505050505050509192919290803590602001906401000000008111156102bb57600080fd5b8201836020820111156102cd57600080fd5b803590602001918460208302840111640100000000831117156102ef57600080fd5b919080806020026020016040519081016040528093929190818152602001838360200280828437600081840152601f19601f8201169050808301925050505050505091929192908035906020019064010000000081111561034f57600080fd5b82018360208201111561036157600080fd5b8035906020019184602083028401116401000000008311171561038357600080fd5b919080806020026020016040519081016040528093929190818152602001838360200280828437600081840152601f19601f820116905080830192505050505050509192919290803590602001906401000000008111156103e357600080fd5b8201836020820111156103f557600080fd5b8035906020019184600183028401116401000000008311171561041757600080fd5b91908080601f016020809104026020016040519081016040528093929190818152602001838380828437600081840152601f19601f820116905080830192505050505050509192919290803579ffffffffffffffffffffffffffffffffffffffffffffffffffff19169060200190929190803579ffffffffffffffffffffffffffffffffffffffffffffffffffff1916906020019092919080359060200190929190803590602001909291908035906020019092919050505061085e565b005b3480156104e357600080fd5b50610530600480360360408110156104fa57600080fd5b81019080803573ffffffffffffffffffffffffffffffffffffffff16906020019092919080359060200190929190505050610c62565b60405180848152602001838152602001828152602001935050505060405180910390f35b60008060008373ffffffffffffffffffffffffffffffffffffffff1673ffffffffffffffffffffffffffffffffffffffff168152602001908152602001600020805490509050919050565b600034116105ac57600080fd5b6000803373ffffffffffffffffffffffffffffffffffffffff1673ffffffffffffffffffffffffffffffffffffffff16815260200190815260200160002060405180606001604052803481526020018481526020018381525090806001815401808255809150509060018203906000526020600020906003020160009091929091909150600082015181600001556020820151816001015560408201518160020155505050600060016000803373ffffffffffffffffffffffffffffffffffffffff1673ffffffffffffffffffffffffffffffffffffffff168152602001908152602001600020805490500390507f213f74f9fdf2ccdedecee95dd0d457e13fb26685ef6644ece69d4a853e6141f8816040518082815260200191505060405180910390a1505050565b60008084905060008090505b86518165ffffffffffff16101561081a576000600182019050600080600061072789878d8865ffffffffffff168151811061071957fe5b60200260200101518b610d0e565b9250925092506107fa836003868585604051602001808465ffffffffffff1665ffffffffffff1660d01b815260060183815260200182815260200193505050506040516020818303038152906040526040518082805190602001908083835b602083106107a95780518252602082019150602081019050602083039250610786565b6001836020036101000a038019825116818451168082178552505050505050905001915050602060405180830381855afa1580156107eb573d6000803e3d6000fd5b5050506040515160601b610d8d565b95506002898161080657fe5b0498505050505080806001019150506106e2565b507f83b8202f20aed46d2b69075fc699d5cd1a2046220db185a423fab298e0801b6c816040518082815260200191505060405180910390a180915050949350505050565b6000610956868660038a6040516020018082805190602001908083835b6020831061089e578051825260208201915060208101905060208303925061087b565b6001836020036101000a0380198251168184511680821785525050505050509050019150506040516020818303038152906040526040518082805190602001908083835b6020831061090557805182526020820191506020810190506020830392506108e2565b6001836020036101000a038019825116818451168082178552505050505050905001915050602060405180830381855afa158015610947573d6000803e3d6000fd5b5050506040515160601b610dcb565b905060006109678b838760016106d6565b905060008160001c60601b9050610a688b610a6060308560d01c65ffffffffffff166bffffffffffffffffffffffff16901b60a01b60038560405160200180826bffffffffffffffffffffffff19166bffffffffffffffffffffffff191681526014019150506040516020818303038152906040526040518082805190602001908083835b60208310610a0f57805182526020820191506020810190506020830392506109ec565b6001836020036101000a038019825116818451168082178552505050505050905001915050602060405180830381855afa158015610a51573d6000803e3d6000fd5b5050506040515160601b610d8d565b8760026106d6565b9150600060308360d01c65ffffffffffff166bffffffffffffffffffffffff16901b60a01b905060008360001c60601b90506060600082604051602001808360ff1660ff1660f81b8152600101826bffffffffffffffffffffffff19166bffffffffffffffffffffffff191681526014019250505060405160208183030381529060405290506000610b7b846003846040518082805190602001908083835b60208310610b2a5780518252602082019150602081019050602083039250610b07565b6001836020036101000a038019825116818451168082178552505050505050905001915050602060405180830381855afa158015610b6c573d6000803e3d6000fd5b5050506040515160601b610d8d565b90506000610c168f610c0e876003876040518082805190602001908083835b60208310610bbd5780518252602082019150602081019050602083039250610b9a565b6001836020036101000a038019825116818451168082178552505050505050905001915050602060405180830381855afa158015610bff573d6000803e3d6000fd5b5050506040515160601b610d8d565b8b60036106d6565b90507f83b8202f20aed46d2b69075fc699d5cd1a2046220db185a423fab298e0801b6c816040518082815260200191505060405180910390a15050505050505050505050505050505050565b6000806000610c6f610e42565b6000808773ffffffffffffffffffffffffffffffffffffffff1673ffffffffffffffffffffffffffffffffffffffff1681526020019081526020016000208581548110610cb857fe5b906000526020600020906003020160405180606001604052908160008201548152602001600182015481526020016002820154815250509050806000015181602001518260400151935093509350509250925092565b6000806000808590506000879050600060028a81610d2857fe5b061415610d3d57819450879350869250610d47565b8094508693508792505b60018660ff1614610d815760008160d01c8360d01c0165ffffffffffff1690506030816bffffffffffffffffffffffff16901b60a01b9550505b50509450945094915050565b60008160601c73ffffffffffffffffffffffffffffffffffffffff1660a08460a01c6bffffffffffffffffffffffff16901b1760001b905092915050565b6000808360d01c65ffffffffffff1660308660d01c65ffffffffffff166bffffffffffffffffffffffff16901b1760a01b905060008360601c73ffffffffffffffffffffffffffffffffffffffff1660a08360a01c6bffffffffffffffffffffffff16901b1760001b905080925050509392505050565b6040518060600160405280600081526020016000801916815260200160008152509056fea265627a7a723158204abd6d4c5061325b2fbea6d040c41c89917621e4e631ef17722b8316ba7c8cb664736f6c63430005100032",
  "source": "pragma solidity >=0.5.2 <0.8.4;\n\ncontract Mari {\n    struct Contract {\n        uint256 amount;\n        bytes32 lock;\n        uint256 expire;\n    }\n\n    mapping(address => Contract[]) contracts;\n\n    event NewContract(uint256 index);\n    event Root(bytes32 proofElement);\n\n    function newContract(bytes32 lock, uint256 expire) public payable {\n        require(msg.value > 0);\n\n        contracts[msg.sender].push(Contract(msg.value, lock, expire));\n        uint256 id = contracts[msg.sender].length - 1;\n        emit NewContract(id);\n    }\n\n    function getContract(address addr, uint256 index)\n        public\n        view\n        returns (\n            uint256,\n            bytes32,\n            uint256\n        )\n    {\n        Contract memory c = contracts[addr][index];\n        return (c.amount, c.lock, c.expire);\n    }\n\n    function getCount(address a) public view returns (uint256) {\n        return contracts[a].length;\n    }\n\n    function _concat2(bytes12 a, bytes20 b) internal pure returns (bytes32) {\n        return bytes32((uint256(uint96(a)) << 160) | uint160(b));\n    }\n\n    function _concat3(\n        bytes6 a,\n        bytes6 b,\n        bytes20 c\n    ) internal pure returns (bytes32) {\n        bytes12 x = bytes12((uint96(uint48(a)) << 48) | uint48(b));\n        bytes32 y = bytes32((uint256(uint96(x)) << 160) | uint160(c));\n        return y;\n    }\n\n    function _F(\n        uint256 j,\n        bytes32 ln,\n        bytes32 w,\n        uint8 layer\n    )\n        internal\n        pure\n        returns (\n            bytes12 p1,\n            bytes32 p2,\n            bytes32 p3\n        )\n    {\n        bytes12 w1 = bytes12(w);\n        bytes12 ln1 = bytes12(ln);\n        if (j % 2 == 0) {\n            p1 = w1;\n            p2 = ln;\n            p3 = w;\n        } else {\n            p1 = ln1;\n            p2 = w;\n            p3 = ln;\n        }\n        if (layer != 1) {\n            uint96 sum = uint48(bytes6(w1)) + uint48(bytes6(ln1));\n            p1 = bytes12(sum<<48);\n        }\n    }\n\n    function verify(\n        bytes32[] memory W,\n        bytes32 h,\n        uint256 j,\n        uint8 layer\n    ) public returns (bytes32) {\n        bytes32 ln = h;\n\n        for (uint48 i = 0; i < W.length; i++) {\n            uint48 height = i + 1;\n\n            (bytes12 p1,bytes32 p2,bytes32 p3) = _F(j, ln, W[i], layer);\n            ln = _concat2(\n                p1,\n                ripemd160(abi.encodePacked(height, p2, p3))\n            );\n\n            j = j / 2;\n        }\n        emit Root(ln);\n        return ln;\n    }\n\n    function claim(\n        bytes32[] memory W1,\n        bytes32[] memory W2,\n        bytes32[] memory W3,\n        string memory x1,\n        bytes6 v1,\n        bytes6 e1,\n        uint256 i1,\n        uint256 i2,\n        uint256 i3 // bytes32 sig\n    ) public {\n        bytes32 h1 = _concat3(v1, e1, ripemd160(abi.encodePacked(x1)));\n        bytes32 res = verify(W1, h1, i1, 1);\n        bytes20 h2 = bytes20(uint160(uint256(res)));\n        res = verify(W2, _concat2(bytes12(uint96(uint48(bytes6(res)))<<48), ripemd160(abi.encodePacked(h2))), i2, 2);\n        bytes12 k3 = bytes12(uint96(uint48(bytes6(res)))<<48);\n        bytes20 h3 = bytes20(uint160(uint256(res)));\n        bytes memory h4 = abi.encodePacked(uint8(0),h3);\n        bytes32 mm =  _concat2(k3,ripemd160(h4));\n        bytes32 ll = verify(W3,  _concat2(k3,ripemd160(h4)), i3, 3);\n        emit Root(ll);\n    }\n}\n\n// https://ethereum.stackexchange.com/questions/67644/how-to-split-bytes32-into-multiples-of-8-in-solidity\n",
  "sourcePath": "/home/anupa/Projects/MARI/contracts/Mari.sol",
  "compiler": {
    "name": "solc",
    "version": "0.5.16+commit.9c3226ce.Emscripten.clang"
  },
  "schemaVersion": "3.4.1",
  "updatedAt": "2021-07-03T11:24:46.610Z",
  "networkType": "ethereum",
  "devdoc": {
    "methods": {}
  },
  "userdoc": {
    "methods": {}
  }
}